:020000040800F2
:10000000780C002075120008690300086B030008D3
:100010006F03000873030008770300080000000066
:100020000000000000000000000000007B0300084A
:100030007D030008000000007F0300088103000822
:100040008F1200088F1200088F1200088F1200080C
:100050008F1200088F1200088F1200088F120008FC
:100060008F1200088F1200088F1200088F120008EC
:100070008F1200088F1200088F1200088F120008DC
:100080008F1200088F1200088F1200088F120008CC
:100090008F1200088F1200088F1200088F120008BC
:1000A0008F1200088F1200088F1200088F120008AC
:1000B0008F1200088F1200088F1200088F1200089C
:1000C0008F1200088F1200088F1200088F1200088C
:1000D0008F120008430E00082D0F00088F12000831
:1000E0008F1200088F1200088F120008DFF80CD062
:1000F00002F0C6F80048004701010008780C002013
:10010000CCB000264FF00109002500BF002781A1D7
:10011000D1E9000289684A924B9149901820012345
:100120007F4A194600907F4800F050FF7E490860E2
:1001300000F0C2FD4FF4A06001F0AEF84FF4E130E2
:1001400000F033FE4FF4E13000F0A3FE00F00AFAB5
:1001500000F02EFA00F0AAFA00F02CFB00F0B4FB3D
:100160004021724801F030FE4021714801F02CFE20
:1001700000240DE049A8015D6C4801F0B7FD00BF07
:1001800040216A4801F020FE0128F9D1601CC4B268
:10019000092CEFDB022367A20021084600F0AFFB29
:1001A000022368A21946002000F0A9FB022367A2DF
:1001B0000421002000F0A3FB022366A206210020F8
:1001C00000F09DFBA5E0654800880128FAD10024D5
:1001D0000BE003A850F8240061490978884202D155
:1001E0004FF0010803E0601CC4B20A2CF1DB00BF31
:1001F000B8F1010F20D05A48007803A941F8260031
:10020000701CC6B2092E00DD00265548007805EBAB
:1002100045010DAA42F82100012005EB450102EB42
:10022000810148604F48007805EB450102EB8101F0
:100230008860681CC5B24AE04FF00008002443E023
:1002400004EB44000DA951F8200045490978884283
:1002500038D104EB44000DA901EB80004068401C3C
:1002600004EB44010DAA02EB8101486004EB440059
:100270000DA901EB800080683A490978084404EB35
:10028000440102EB8101886004EB44000DA901EBFD
:10029000800040680A2814D104EB440002EB80007F
:1002A000008981B2484600F0B5FF0746384600F0A5
:1002B000B8FF002004EB44010DAA42F82100681E9B
:1002C000C5B203E0601CC4B2142CB9DB00BF00202F
:1002D00002210B46CDE90010214802783C2000F0B5
:1002E00053FC002002210323CDE900101D480278B1
:1002F00004213C2000F048FC0020022103233A4660
:10030000CDE9001006213C2000F03EFC00201349FE
:10031000088058E7BB00280000287E0D0A00000076
:10032000C3040020C2040020C4040020003801409F
:10033000004400402D2D2D646574656374696E67FB
:100340002D2D2D0049202044203A000052535349BE
:10035000203A000044495354203A0000C0040020D1
:10036000C9040020C8040020704700BFFEE700BF9A
:10037000FEE700BFFEE700BFFEE77047704770472B
:10038000704700000CB50020019000906C48006898
:1003900040F480306A49086000BF6948006800F492
:1003A000003000900198401C0190009818B9019805
:1003B000B0F5A06FF1D16248006800F4003010B1D0
:1003C0000120009001E0002000900098012843D116
:1003D0005C48006840F010005A4908600846006810
:1003E00020F0030008600846006840F00200086042
:1003F000534840685249486008464068486008468B
:10040000406840F4806048600846406820F47C10F2
:1004100048600846406840F4E810486008460068B4
:1004200040F08070086000BF4548006800F0007030
:100430000028F9D04248406820F003004049486055
:100440000846406840F00200486000BF3C484068F1
:1004500000F00C000828F9D10CBD10B5FFF792FF91
:1004600010BD10B53648006840F0010034490860FE
:1004700008464068344908403149486008460068E9
:10048000324908402E4908600846006820F4802060
:1004900008600846406820F4FE0048604FF41F00E2
:1004A0008860FFF7DAFF4FF000602949086010BD4F
:1004B00010B5002100200022214B5B6803F00C01E5
:1004C00021B1042906D0082928D107E0214B224C6C
:1004D000236027E01F4B204C236023E0184B5B6810
:1004E00003F47010164B5B6803F48032022303EBB5
:1004F000904022B9194B4343174C23600DE0104B39
:100500005B6803F4003323B1144B4343124C236064
:1005100003E0104B4343104C236003E00D4B0E4CA3
:10052000236000BF00BF064B5B68C3F303130C4C92
:10053000E15C094B1B68CB40074C236010BD0000F9
:1005400000100240002002400000FFF8FFFFF6FE0E
:1005500008ED00E000127A000000002000093D00D4
:100560000400002008B50121482001F01FFA2020D6
:10057000ADF8000010208DF8030003208DF8020074
:100580006946094800F056FF2021074800F0FFFFA8
:100590002020ADF800006946044800F04BFF202100
:1005A000024800F0F4FF08BD000C014000180140B3
:1005B00008B50121442001F0F9F91C20ADF8000034
:1005C00048208DF803006946354800F033FF0120CC
:1005D000ADF8000028208DF803006946314800F08E
:1005E00029FF08BD10B5044614B101202E4908703A
:1005F0002D480078002837D01021294800F0ADFFA1
:1006000078B10821264800F0A8FF50B10421244801
:1006100000F0A3FF28B10121224800F09EFF01282D
:1006200022D10A2000F085FB00201F49087010210C
:100630001B4800F092FF08B9012010BD082118489E
:1006400000F08BFF08B90220F7E70421144800F0FE
:1006500084FF08B90320F0E70121124800F07DFF74
:1006600001281BD10420E8E710210D4800F075FF98
:10067000012813D108210A4800F06FFF01280DD18D
:100680000421074800F069FF012807D1012105482E
:1006900000F063FF10B90120034908700020CCE787
:1006A00000180140000801401400002000B585B08A
:1006B0000121480501F087F90121082001F076F9B0
:1006C000C020ADF8000003208DF802001C208DF83A
:1006D00003006946FA4800F0ADFEFA4801F0CEFB8F
:1006E0000020ADF808004BF6FF70ADF80A0030208E
:1006F000ADF80C004FF48060ADF80E000001ADF8CD
:100700001000F14801900121EE4801F04EFC01A9D2
:10071000EC4801F0CCFB05B000BD70B504460D46B9
:1007200000BF4FF40031E74801F066FD0028F8D122
:100730000121E44801F05DFC00BFE449E14801F01B
:1007400039FD0028F9D000227821DE4801F0A7FC0D
:1007500000BFDF49DB4801F02DFD0028F9D021461C
:10076000D84801F096FC00BFD949891CD54801F052
:1007700021FD0028F8D02946D24801F08AFC00BFAC
:10078000D349891CCF4801F015FD0028F8D001217C
:10079000CC4801F03AFC70BD10B50446214600205B
:1007A000FFF7BBFF10BD10B5044621464020FFF700
:1007B000B4FF10BD10B5642000F0BBFAAE20FFF707
:1007C000EBFF2020FFF7E8FF1020FFF7E5FFB02048
:1007D000FFF7E2FFC820FFF7DFFF0020FFF7DCFF95
:1007E0001020FFF7D9FF4020FFF7D6FF8120FFF749
:1007F000D3FFFF20FFF7D0FFA120FFF7CDFFA620FA
:10080000FFF7CAFFA820FFF7C7FF3F20FFF7C4FF8D
:10081000A420FFF7C1FFD320FFF7BEFF0020FFF7A2
:10082000BBFFD520FFF7B8FFF020FFF7B5FFD920B9
:10083000FFF7B2FF2220FFF7AFFFDA20FFF7ACFF90
:100840001220FFF7A9FFDB20FFF7A6FF2020FFF70C
:10085000A3FF8D20FFF7A0FF1420FFF79DFFAF201F
:10086000FFF79AFF10BD70B504460D4605F1B001C3
:10087000C8B2FFF791FF102141EA1410FFF78CFF77
:1008800004F00F0141F00100FFF786FF70BD70B565
:100890000646002415E004F1B001C8B2FFF77CFF62
:1008A0000020FFF779FF1020FFF776FF002504E016
:1008B0003046FFF778FF681CC5B2802DF8DB601C5E
:1008C000C4B2082CE7DB70BD10B50020FFF7DFFFD6
:1008D00010BD10B58D20FFF75FFF1420FFF75CFF00
:1008E000AF20FFF759FF10BD10B58D20FFF754FF63
:1008F0001020FFF751FFAE20FFF74EFF10BD2DE98E
:10090000F0470646894617469A464FF000080024ED
:100910000025BAF1010F03D0BAF1020F5ED125E034
:1009200020E0785D203800F0FF087E2E04DD0026F0
:1009300009F1010000F0FF0949463046FFF793FF37
:10094000002409E008EB4801624A02EB4101085D1E
:10095000FFF729FF601CC4B2062CF3DBB01DC6B242
:10096000681CC5B2785D0028DBD137E032E0785DE5
:10097000203800F0FF08782E04DD002609F1010080
:1009800000F0FF0949463046FFF76DFF002407E0FD
:1009900004EB0811504A505CFFF705FF601CC4B21D
:1009A000082CF5DB09F10100C1B23046FFF75BFF0F
:1009B000002408E004EB08110831474A505CFFF7B7
:1009C000F2FE601CC4B2082CF4DB06F10800C6B2CB
:1009D000681CC5B2785D0028C9D100BF00BFBDE862
:1009E000F0872DE9F04180460E46174600247D0130
:1009F00031464046FFF737FF00BF06E03749485D04
:100A0000FFF7D1FE6D1C601CC4B2102CF6DB701C0D
:100A1000C1B24046FFF727FF002406E02F49485D9A
:100A2000FFF7C1FE6D1C601CC4B2102CF6DBBDE8E4
:100A3000F0812DE9F05F06460F4690461C46DDF832
:100A400028A04FF0000BE11704EB5171C910A4EB83
:100A5000C10131B92046E11704EB5171C1F3C7055B
:100A600006E02046E11704EB5171C910491CCDB2D4
:100A70003D4614E029463046FFF7F5FEB1460AE050
:100A800059460BF1010B1AF80100FFF78CFE09F132
:100A9000010000F0FF09C145F2DB681CC5B2A542A8
:100AA000E8DBBDE8F09F2DE9F04707460E4690468B
:100AB0009946B9F1010F13D0B9F1020F56D12AE0CE
:100AC000000C014000540040801A060001000300A1
:100AD00082000700D4230008FC2500081500002030
:100AE000A8F12000C5B27E2F02DD0027701CC6B21F
:100AF00031463846FFF7B7FE002409E005EB450113
:100B00006B4A02EB4101085DFFF74DFE601CC4B269
:100B1000062CF3DB2AE0A8F12000C5B2782F02DD15
:100B20000027701CC6B231463846FFF79CFE0024F1
:100B300007E004EB05115F4A505CFFF734FE601CD0
:100B4000C4B2082CF5DB701CC1B23846FFF78BFE2F
:100B5000002408E004EB05110831564A505CFFF709
:100B600022FE601CC4B2082CF4DB00BF00BFBDE84D
:100B7000F08710B50246012000E050430B1EA1F1A2
:100B80000104E1B2F9D110BD2DE9FF5F05469046A1
:100B90001E46DDE90EB94FF0000ABBF1010F03D08C
:100BA000BBF1020F3FD13FE000243AE0301B401E72
:100BB000C1B20A20FFF7DDFFB8FBF0F00A21B0FB5D
:100BC000F1F201FB1207BAF1000F1CD1701EA04216
:100BD00019DDB7B9B9F1010F09D1062101FB0451A3
:100BE000C8B2012320220199FFF75DFF08E006212A
:100BF00001FB0451C8B2012330220199FFF753FFD2
:100C00000DE04FF0010A07F13001CAB2062101FBE5
:100C10000451C8B201230199FFF745FF00BF601CD2
:100C2000C4B2B442C2DB3FE000243AE0301B401EB5
:100C3000C1B20A20FFF79DFFB8FBF0F00A21B0FB1C
:100C4000F1F201FB1207BAF1000F1CD1701EA04295
:100C500019DDB7B9B9F1010F09D1082101FB045120
:100C6000C8B2022320220199FFF71DFF08E00821E6
:100C700001FB0451C8B2022330220199FFF713FF90
:100C80000DE04FF0010A07F13001CAB2082101FB63
:100C90000451C8B202230199FFF705FF00BF601C91
:100CA000C4B2B442C2DB00BF00BFBDE8FF9F00007A
:100CB000D4230008FC25000810B56FF0040000F0F4
:100CC0003AFB2E4800682E49B0FBF1F02D49087020
:100CD0000846007800EB4001C1EBC0104FF6FF71F1
:100CE00001EAC0002849088010BD0146254A127853
:100CF0004A434FF0E0235A6100229A611A46126972
:100D000042F001021A6100BF4FF0E022106900F0CA
:100D100001021AB100F48032002AF5D04FF0E0222F
:100D2000126922F001024FF0E0231A6100229A6159
:100D300070470146144A12884A434FF0E0235A6133
:100D400000229A611A46126942F001021A6100BF3C
:100D50004FF0E022106900F001021AB100F4803275
:100D6000002AF5D04FF0E022126922F001024FF084
:100D7000E0231A6100229A61704700000000002001
:100D800000127A00B6040020B8040020014600BF1B
:100D9000704700BF844A128802F04002002AF9D04E
:100DA000C2B2814B1B1D1A80704710B586B0044635
:100DB000012144F2040000F0F9FD4FF40070ADF899
:100DC000140003208DF8160018208DF8170005A9CF
:100DD000764800F02FFB4FF48060ADF8140004203B
:100DE0008DF8170005A9714800F024FB25208DF827
:100DF000000003208DF801008DF8020001208DF81D
:100E00000300684600F04DFA01940020ADF8080098
:100E1000ADF80A00ADF80C00ADF810000C20ADF8EC
:100E20000E0001A9604800F068FE012240F2255141
:100E30005D4800F0FAFE01215B4800F0EAFE06B0D2
:100E400010BD10B540F22551574800F0D3FFF8B15E
:100E5000554800F04FFFC4B221465548006800F0E5
:100E6000E7F8012814D104215148006800F023F963
:100E70005049087007214E48006800F01CF94E499F
:100E800008704B48006800F02CF901204B4908809D
:100E900010BD10B586B004460121480400F093FD52
:100EA0000121042000F082FD0420ADF8140003208D
:100EB0008DF8160018208DF8170005A93B4800F0A2
:100EC000B9FA0820ADF8140004208DF8170005A920
:100ED000364800F0AFFA26208DF8000003208DF888
:100EE00001008DF8020001208DF80300684600F033
:100EF000D8F901940020ADF80800ADF80A00ADF86B
:100F00000C00ADF810000C20ADF80E0001A92C4823
:100F100000F0F3FD012240F22551294800F085FE42
:100F20000121274800F075FE06B010BD10B540F253
:100F30002551234800F05EFF10B3214800F0DAFE8F
:100F4000C4B22048008800F40040C8B91D48008899
:100F500000F4804060B10A2C03D0002019490880B9
:100F600020E01848008840F400401649088019E045
:100F70000D2C06D11348008840F4804011490880A8
:100F800010E010480088C0F30D000F490C540D48C4
:100F90000088401C0B49088008460088C72801DDEE
:100FA0000020088010BD000000380140000801400A
:100FB000C4040020C8040020C9040020C00400208C
:100FC00000440040CA040020B00500202DE9F0478D
:100FD00080460D4691461E46089F182001F0C4F930
:100FE0000446A819B84201DCA81910B90020BDE8D0
:100FF000F087384600F097F8206000206060C4F861
:1010000008802573C4F810902675207B381A217D3E
:10101000401A60750020A07503E00021206800F0F0
:101020008DF8381EA7F10101CFB2F6DC2046DEE7CD
:101030002DE9F04104460F4614B90020BDE8F081C7
:101040003946206800F07AF820688668257D09E036
:10105000681E2169085C3178884200D021E07668FA
:10106000681EC5B2002DF3DC20684668002508E044
:101070003078A168495D884200D012E0B668681CEB
:10108000C5B2207BA842F3DC606818B9607D0028F7
:1010900000DD6660A07D012801D00120A075A07D43
:1010A000CCE7606808B100206060A07D08B1002036
:1010B000A075A07DC2E702463AB1907D012804D117
:1010C000507D884201DD506810B94FF0FF30704705
:1010D000536802E09B68481EC1B20029FADC187808
:1010E000F5E770B5044604B970BD2068457803E0A3
:1010F0000021206800F022F8281EA5F10101CDB2E0
:10110000F6DC00206060A07500BFEDE710B5044676
:1011100004B910BD206800F073F8204601F0FCF817
:10112000002400BFF5E770B505460C2001F01CF95E
:101130000446257000206070204670BD70B50446DE
:101140000E4660782178884219DA0C2001F00CF9FB
:1011500005462E700020A860607828B900206860DD
:10116000A560A068606006E0A0686860A06885600F
:10117000A0688068A0606078401C607011E06168C1
:101180008868D4E901215160D4E901129160A16815
:101190008968A160A1680E700021A26891606060FA
:1011A00000BF6078401EC0B270BD70B50446002517
:1011B0006078002818DD606805786078012806D11D
:1011C000606801F0A9F800206060A06009E0606834
:1011D000806860606168486801F09EF8002061687E
:1011E00048606078401E6070284670BD10B50446A7
:1011F00002E02046FFF7D9FF60780028F9DC10BD37
:1012000010B504462046FFF7F1FF204601F084F8B0
:10121000002410BD02460A2391FBF3F399B2C8B231
:10122000704710B50446FF21104800F05FFD00BF75
:1012300040210E4800F0C8FD0128F9D10C48017882
:101240000A4800F053FD00BF4021084800F0BCFDF3
:101250000128F9D12146054800F048FD00BF402192
:10126000024800F0B1FD0128F9D110BD0044004052
:10127000C90400200648804706480047FEE7FEE70D
:10128000FEE7FEE7FEE7FEE7FEE7FEE7FEE7FEE736
:1012900063040008ED00000831490143314A116040
:1012A000704770B5002100230F22C47804B32D4C81
:1012B000246804F4E064C4F5E064210AC1F1040385
:1012C000CA40447804FA03F18478144021430901A8
:1012D000254C0678A155047804F01F050124AC4084
:1012E00005786D11AD0005F1E025C5F8004109E074
:1012F000047804F01F050124AC401C4D06787611DB
:1013000045F8264070BD1A4A0A400243154B1B1F80
:101310001A60704739B1134A121D12680243114B0B
:101320001B1D1A6006E00F4A121D126882430D4B06
:101330001B1D1A607047042808D14FF0E02109698D
:1013400041F004014FF0E022116107E04FF0E0218D
:10135000096921F004014FF0E0221161704700009B
:101360000000FA050CED00E000E400E080E100E0A0
:1013700080FFFF1F10B50446CC48844208D10121EC
:10138000042000F02DFB0021042000F029FB46E0A2
:10139000C748844208D10121082000F021FB002128
:1013A000082000F01DFB3AE0C248844208D1012128
:1013B000102000F015FB0021102000F011FB2EE0A2
:1013C000BD48844208D10121202000F009FB002102
:1013D000202000F005FB22E0B848844208D101211A
:1013E000402000F0FDFA0021402000F0F9FA16E05C
:1013F000B348844208D10121802000F0F1FA002195
:10140000802000F0EDFA0AE0AE48844207D10121C5
:10141000801500F0E5FA0021A01500F0E1FA10BDFA
:1014200010B50121084600F0DBFA0021012000F090
:10143000D7FA10BD2DE9F041024600250026002014
:1014400000230024002791F803C00CF00F0591F849
:1014500003C00CF0100CBCF1000F03D091F802C0D7
:101460004CEA050591F800C0BCF1000F31D01468BA
:1014700000202BE04FF0010C0CFA00F3B1F800C093
:101480000CEA03069E4220D183004FF00F0C0CFAA9
:1014900003F7BC4305FA03FC4CEA040491F803C0CB
:1014A000BCF1280F06D14FF0010C0CFA00FCC2F879
:1014B00014C00AE091F803C0BCF1480F05D14FF009
:1014C000010C0CFA00FCC2F810C0401C0828D1D353
:1014D0001460B1F800C0BCF1FF0F34DD5468002087
:1014E0002EE000F1080C4FF0010808FA0CF3B1F8F7
:1014F00000C00CEA03069E4221D183004FF00F0C7E
:101500000CFA03F7BC4305FA03FC4CEA040491F817
:1015100003C0BCF1280F05D100F1080C08FA0CF843
:10152000C2F8148091F803C0BCF1480F07D100F154
:10153000080C4FF0010808FA0CF8C2F81080401CA3
:101540000828CED35460BDE8F0814FF6FF710180CA
:10155000022181700421C170704702460020936807
:101560000B400BB1012000E0002070470146886865
:1015700080B2704702460020D3680B400BB10120B7
:1015800000E0002070470146C86880B270470161E2
:101590007047416170470AB1016100E041617047E5
:1015A000C16070474FF480320A4382618161826179
:1015B00082698269704702460020434B18684FF6E3
:1015C0008073184040EA021008433F4B1860704790
:1015D0003E49C8617047F0B50A4600230024002147
:1015E000002500F00046B6F1004F02D1364EF169F9
:1015F00001E0354E7168C0F3034583B200F4401634
:10160000B6F5401F08D121F070612F4E766826F0A4
:1016100070662D4F7E6012E000F48016B6F5801FD4
:1016200006D1032606FA05F4A14341F0706106E0F5
:10163000460D360103FA06F6B14341F0706122B15E
:10164000460D360103FA06F6314300F00046B6F1C6
:10165000004F02D11C4EF16101E01B4E7160F0BDE4
:1016600030B500228B071C0F0F2303FA04F2164B30
:1016700008338C1053F824309343134C08348D10E6
:1016800044F8253023468C1053F824308C07240F5F
:1016900000FA04F423430C4C08348D1044F8253030
:1016A00030BD0A49DC310860704700000008014085
:1016B000000C0140001001400014014000180140DE
:1016C000001C0140002001400000014000002042B9
:1016D000DF48006840F00100DD49086008464068C6
:1016E000DC490840DA49486008460068DA490840A1
:1016F000D74908600846006820F480200860084642
:10170000406820F4FE0048604FF41F008860704776
:10171000CF49096821F48031CD4A1160114609682A
:1017200021F480211160B0F5803F03D0B0F5802F07
:101730000ED106E0C649096841F48031C44A1160FF
:1017400007E0C349096841F4A021C14A116000E0E3
:1017500000BF00BF704710B50146002200230020E3
:101760004A11012A02D1BA4C236806E0022A02D1AA
:10177000B74C236A01E0B64C636A01F01F020124F2
:1017800094401C400CB1012000E0002010BD38B591
:10179000002000900024002500BF3120FFF7DBFF70
:1017A00005460098401C00900098B0F5A06F01D04D
:1017B000002DF2D03120FFF7CEFF08B1012400E068
:1017C0000024204638BD01460020A14A106820F0C0
:1017D000F80040EAC10010607047A04908607047F7
:1017E000024600209A4B586820F47C1042EA01031C
:1017F0001843974B586070479849086670470146F0
:101800000020934A506820F003000843506070475E
:101810008F48406800F00C007047014600208C4A59
:10182000506820F0F00008435060704701460020E7
:10183000874A506820F4E0600843506070470146D2
:101840000020834A506820F4605040EAC100506094
:10185000704729B17E4A527A02437D4B5A7204E0A6
:101860007B4A527A82437A4B5A7270477B49D8310D
:101870000860704701460020754A506820F44040D7
:101880000843506070470021714A20321170704A3D
:1018900082F82010012802D004280AD104E0012196
:1018A0006B4A2032117005E00521694A203211701F
:1018B00000E000BF00BF7047694908607047644995
:1018C000096A0143624A11627047654944390860F8
:1018D000704730B500210022002400235C4D6D6864
:1018E00005F00C0121B1042905D0082923D105E018
:1018F0005C4D056022E05B4D05601FE0544D6D6856
:1019000005F47012524D6D6805F48034022505EB24
:1019100092421CB9544D554305600BE04C4D6D6827
:1019200005F400351DB1504D5543056002E04D4DA5
:101930005543056002E04B4D056000BF00BF444DBC
:101940006D6805F0F0010909484D6B5C0568DD40E4
:1019500045603F4D6D6805F4E061090A434D6B5CDD
:101960004568DD4085603A4D6D6805F46051C90AEF
:101970003E4D6B5C4568DD40C560354D6D6805F4D6
:101980004041890B3A4D6B5CC568B5FBF3F50561C9
:1019900030BD29B12E4A526902432D4B5A6104E0F1
:1019A0002B4A526982432A4B5A61704729B1284A0F
:1019B00092690243264B9A6104E0254A9269824368
:1019C000234B9A61704729B1214AD2690243204BC7
:1019D000DA6104E01E4AD26982431D4BDA61704726
:1019E00029B11B4AD2680243194BDA6004E0184A55
:1019F000D2688243164BDA60704729B1144A1269E3
:101A00000243134B1A6104E0114A12698243104BDE
:101A10001A61704712494039086070470F49C8641D
:101A200070470B49C87170470948406A40F08070A0
:101A300007494862704701460020054A92680A40FB
:101A40000AB1012000E00020704701498872704708
:101A5000001002400000FFF8FFFFF6FE00004242C7
:101A60008004424200127A0000093D00CC040020AC
:101A7000DC04002010B50446FB48844209D1012152
:101A80008803FFF7ADFF00214FF48040FFF7A8FF68
:101A900032E0F648844209D101214804FFF7ADFF46
:101AA00000214FF40030FFF7A8FF25E0F048844202
:101AB00009D101218804FFF7A0FF00214FF4802005
:101AC000FFF79BFF18E0EB48844209D10121C804CD
:101AD000FFF793FF00214FF40020FFF78EFF0BE08C
:101AE000E548844208D101210805FFF786FF00215F
:101AF0004FF48010FFF781FF10BD2DE9F04786B04D
:101B000005460E460024A24600BFA1460027B08924
:101B100000B100BF2F462C8A4CF6FF700440F088BD
:101B200004432C82AC894EF6F3100440B08831890E
:101B30000843718908430443AC81AC8A4FF6FF40E7
:101B40000440B0890443AC8201A8FFF7C2FEC64836
:101B5000874202D1DDF810A001E0DDF80CA0A889D1
:101B600000F4004040B10AEBCA0000EB0A103168F3
:101B70004900B0FBF1F807E00AEBCA0000EB0A10DD
:101B800031688900B0FBF1F86420B8FBF0F0040183
:101B90002009642101FB1089A88900F4004040B1AC
:101BA000322000EBC900B0FBF1F000F00700044365
:101BB00008E0322000EB09106421B0FBF1F000F0E6
:101BC0000F0004432C8106B0BDE8F0874FF4165196
:101BD000016000218180C18001810C2141810021AF
:101BE0008181704710B502460020108A4FF2FF0332
:101BF00018400B884C8823438C882343CC8823438C
:101C00001843108210BD0021018041808180C18075
:101C1000704721B1828942F40052828104E08289B6
:101C20004DF6FF731A4082817047F0B503460024D9
:101C300000260025002040F66A17B94200D100BFF7
:101C40001846C1F3421401F01F06012707FA06F5F2
:101C5000012C01D10C3004E0022C01D1103000E045
:101C600014301AB107682F43076002E00768AF43DA
:101C70000760F0BD1AB1838A0B43838202E0838A36
:101C80008B4383827047028A4FF6F0731A400282B8
:101C9000028A0A430282704782894FF2FF731A4018
:101CA000828182890A438281704721B1828942F010
:101CB0000202828104E082894FF6FD731A4082811C
:101CC0007047028A4FF6DF731A400282028A0A4383
:101CD0000282704721B1028A42F48042028204E00B
:101CE000028A4BF6FF731A4002827047C1F3080262
:101CF0008280704701468888C0F308007047818958
:101D000041F0010181817047028BD2B20283028BC4
:101D100042EA012202837047028B02F47F4202836F
:101D2000028B0A430283704721B1828A42F020026B
:101D3000828204E0828A4FF6DF731A408282704703
:101D400021B1828A42F01002828204E0828A4FF638
:101D5000EF731A408282704721B1828A42F00802F2
:101D6000828204E0828A4FF6F7731A4082827047BB
:101D700021B1828942F40042828103E08289C2F368
:101D80000E028281704721B1828A42F4006282820F
:101D900004E0828A4FF2FF731A4082827047828A7F
:101DA0004FF6FB731A408282828A0A43828270470E
:101DB00021B1828A42F00202828204E0828A4FF6D6
:101DC000FD731A408282704702460020B1F5007F01
:101DD00000D100BF13880B400BB1012000E00020B0
:101DE000704701F40072B2F5007F00D100BFCA4312
:101DF0000280704770B502460024002300250020B1
:101E000040F66A16B14200D100BFC1F3421501F09D
:101E10001F03012606FA03F3012D02D196893340F0
:101E200006E0022D02D1168A334001E0968A334043
:101E30000C12012606FA04F41688344013B10CB1D2
:101E4000012000E0002070BD10B50022002340F604
:101E50006A14A14200D100BF0A1201249440A3B227
:101E6000DC43048010BD0000003801400044004005
:101E700000480040004C00400050004010B50446AF
:101E8000F748844209D101214805FFF7B6FD00213A
:101E90004FF40010FFF7B1FD08E001218805FFF7BE
:101EA000ACFD00214FF48000FFF7A7FD10BD2DE928
:101EB000F04385B004460D460026B1460427DFF8FE
:101EC000A483A6884FF6C07006406846FFF701FD60
:101ED000DDF80880E448B8FBF0F01FFA80F946EA24
:101EE0000906A68020884FF6FE7108402080002653
:101EF000DE49286888420CD828684000B8FBF0F01A
:101F000087B2042F00DA04273E4309F10100208440
:101F100027E0E8884BF6FF71884206D1286800EB7D
:101F20004000B8FBF0F087B209E0286800EBC00180
:101F300001EB0010B8FBF0F087B247F48047C7F31D
:101F40000B0008B947F0010747F4004006434FF47F
:101F5000967009FB00F04FF47A7190FBF1F0401C91
:101F60002084A683208840F00100208026884FF638
:101F7000F5300640A8886989084306432680A88969
:101F800029890843208105B0BDE8F08341F28831FA
:101F90000160002181804BF6FF71C1800021018129
:101FA00041814FF480418181704721B1028842F024
:101FB0000102028004E002884FF6FE731A4002809C
:101FC000704721B1828842F40062828004E08288F6
:101FD0004FF2FF731A408280704721B1828842F429
:101FE0008052828004E082884EF6FF731A4082801D
:101FF000704721B1028842F48072028004E00288B6
:102000004FF6FF631A400280704721B1028842F404
:102010000072028004E002884FF6FF531A400280EB
:10202000704721B1028842F48062028004E0028895
:102030004FF6FF331A40028070470A46002181891B
:102040004FF60173194002F0FE0319438181704776
:1020500021B1828942F00102828104E082894FF637
:10206000FE731A408281704721B1028842F040021B
:10207000028004E002884FF6BF731A400280704766
:102080001AB183880B43838002E083888B4383806B
:102090007047018270470146088AC0B2704712B18A
:1020A00041F0010102E04FF6FE73194001827047D2
:1020B00008B5024600200090009200980844009065
:1020C0000098008808BD21B1028842F400420280D5
:1020D00003E00288C2F30E0202807047B1F5006F80
:1020E00004D1028842F40062028004E002884FF2C8
:1020F000FF731A4002807047B1F5005F04D1028877
:1021000042F40052028004E002884DF6FF731A4048
:102110000280704721B1028842F48052028004E0BC
:1021200002884EF6FF731A4002807047B1F5006FC7
:1021300004D1028842F40062028004E002884FF277
:10214000FF731A400280704721B1028842F02002DA
:10215000028004E002884FF6DF731A400280704765
:102160000146088B0012704721B1028842F010022C
:10217000028004E002884FF6EF731A400280704735
:1021800021B9028842F08002028004E002884FF602
:102190007F731A4002807047B1F5804F05D0828B63
:1021A0004BF6FF731A40828303E0828B42F4804235
:1021B0008283704770B5024600240025002300206A
:1021C000958A138B1B0445EA030626F07F4404EA34
:1021D00001068E4201D1012000E0002070BD10B543
:1021E00001460020002300228B8A0A8B120443EA56
:1021F000020424F07F4010BD0CB5024600200023ED
:102200000193009300920B0F019321F07F41019BFA
:102210001BB1009B1433009303E0090C009B18339F
:102220000093009B1B680B400BB1012000E00020D5
:102230000CBD002221F07F42D3438382704730B52A
:10224000024600200023948801F0E06504EA15436B
:1022500021F07F41948A0C4054B14BB1012008E039
:102260000054004000127A0040420F00A086010096
:10227000002030BD002221F07F42D343838270478B
:10228000064C074D06E0E06840F0010394E80700C3
:1022900098471034AC42F6D3FDF72CFFEC2B000826
:1022A0000C2C000870B58C1810F8015B15F00703B2
:1022B00001D110F8013B2A1106D110F8012B03E0DF
:1022C00010F8016B01F8016B5B1EF9D12B0705D4E7
:1022D0000023521E0DD401F8013BFAE710F8013B30
:1022E000CB1A921C03E013F8015B01F8015B521E4C
:1022F000F9D5A142D8D3002070BD02E008C8121F52
:1023000008C1002AFAD170477047002001E001C1DE
:10231000121F002AFBD1704710B5002821D0114BA5
:102320000022001F196803E0814203D80A46496869
:102330000029F9D152B11368841A9C4204D1006873
:1023400018441060104602E0506000E0186039B197
:1023500002680B1A934203D10B681A440260496861
:10236000416010BDE0040020F0B50B30154D20F0A9
:1023700007010024144A0FE003688B420BD38B4201
:1023800005D95E1A43184768C3E9006700E043684F
:10239000136002C004E0021D10680028ECD1204642
:1023A000002802D1286808B10020F0BD064A07487D
:1023B0001060074A121A22F00702C0E90024012027
:1023C0002860D7E7E4040020E00400207C06002019
:1023D000780800200000000000000000002F00002E
:1023E00000000700070000147F147F1400242A7FD8
:1023F0002A12006264081323003649552250000057
:102400000503000000001C224100000041221C00C6
:102410000014083E08140008083E0808000000A048
:102420006000000808080808000060600000002044
:1024300010080402003E5149453E0000427F400022
:10244000004261514946002141454B3100181412A8
:102450007F10002745454539003C4A494930000175
:102460007109050300364949493600064949291EC4
:102470000000363600000000563600000008142226
:102480004100001414141414000041221408000226
:102490000151090600324959513E007C1211127C4B
:1024A000007F49494936003E41414122007F414178
:1024B000221C007F49494941007F09090901003E6A
:1024C0004149497A007F0808087F0000417F4100A8
:1024D000002040413F01007F08142241007F40401E
:1024E0004040007F020C027F007F0408107F003E06
:1024F0004141413E007F09090906003E4151215EEC
:10250000007F091929460046494949310001017FE8
:102510000101003F4040403F001F2040201F003F7E
:102520004038403F00631408146300070870080730
:1025300000615149454300007F41410000552A5543
:102540002A55000041417F000004020102040040BE
:1025500040404040000001020400002054545478E0
:10256000007F484444380038444444200038444400
:10257000487F00385454541800087E09010200189E
:10258000A4A4A47C007F080404780000447D4000DB
:10259000004080847D00007F102844000000417FBF
:1025A0004000007C04180478007C0804047800389B
:1025B0004444443800FC242424180018242418FC23
:1025C000007C0804040800485454542000043F448C
:1025D0004020003C4040207C001C2040201C003C4F
:1025E0004030403C004428102844001CA0A0A07C9F
:1025F000004464544C4414141414141400000000D7
:10260000000000000000000000000000000000F8D2
:1026100000000000000000333000000000100C0635
:10262000100C0600000000000000000040C07840D0
:10263000C0784000043F04043F040400007088FC9C
:1026400008300000001820FF211E0000F008F000F4
:10265000E018000000211C031E211E0000F0088865
:10266000700000001E2123241927211010160E00CF
:10267000000000000000000000000000000000E07A
:10268000180402000000000718204000000204188F
:10269000E00000000040201807000000404080F0EB
:1026A000804040000202010F01020200000000F021
:1026B000000000000101011F0101010000000000F5
:1026C0000000000080B0700000000000000000006A
:1026D00000000000000101010101010100000000F3
:1026E000000000000030300000000000000000008A
:1026F00080601804006018060100000000E0100867
:102700000810E000000F102020100F00001010F83B
:10271000000000000020203F20200000007008087A
:1027200008887000003028242221300000300888FA
:10273000884830000018202020110E000000C02022
:1027400010F8000000070424243F240000F8088843
:10275000880808000019212020110E0000E01088D0
:1027600088180000000F112020110E000038080802
:10277000C83808000000003F000000000070880812
:1027800008887000001C222121221C0000E0100893
:102790000810E0000000312222110F00000000C0EC
:1027A000C000000000000030300000000000008089
:1027B0000000000000008060000000000000804079
:1027C0002010080000010204081020004040404092
:1027D00040404000040404040404040000081020E5
:1027E000408000000020100804020100007048082A
:1027F0000808F0000000003036010000C030C82892
:10280000E810E0000718272423140B000000C0384C
:10281000E0000000203C23020227382008F88888C6
:1028200088700000203F202020110E00C0300808D2
:1028300008083800071820202010080008F80808A9
:102840000810E000203F202020100F0008F88888A2
:10285000E8081000203F20202320180008F888886E
:10286000E8081000203F200003000000C0300808E6
:102870000838000007182020221E020008F808006F
:102880000008F808203F210101213F20000808F836
:10289000080800000020203F202000000000080859
:1028A000F8080800C08080807F00000008F888C019
:1028B00028180800203F20012638200008F80800CA
:1028C00000000000203F20202020300008F8F80001
:1028D000F8F80800203F003F003F200008F830C013
:1028E0000008F808203F200007183F00E010080803
:1028F0000810E0000F10202020100F0008F8080832
:102900000808F000203F210101010000E010080844
:102910000810E0000F18242438504F0008F8888869
:1029200088887000203F2000030C30200070880849
:10293000080838000038202121221C00180808F857
:10294000080818000000203F2000000008F80800D8
:102950000008F808001F202020201F0008788800A9
:1029600000C83808000007380E010000F80800F819
:102970000008F800033C0700073C030008186880C3
:102980008068180820302C03032C30200838C80039
:10299000C83808000000203F200000001008080888
:1029A000C83808002038262120201800000000FE2A
:1029B000020202000000007F40404000000C30C0D6
:1029C00000000000000000010638C0000002020202
:1029D000FE000000004040407F00000000000402B4
:1029E00002020400000000000000000000000000DF
:1029F00000000000808080808080808000020204CF
:102A000000000000000000000000000000008080C6
:102A1000808000000019242222223F2008F8008034
:102A200080000000003F112020110E0000000080F7
:102A300080800000000E1120202011000000008086
:102A40008088F800000E112020103F2000008080B8
:102A500080800000001F222222221300008080F0CC
:102A6000888888180020203F2020000000008080F7
:102A700080808000006B94949493600008F800803C
:102A800080800000203F210000203F200080989897
:102A9000000000000020203F2020000000000080F7
:102AA0009898000000C08080807F000008F8000037
:102AB00080808000203F24022D302000000808F88C
:102AC000000000000020203F202000008080808047
:102AD00080808000203F20003F20003F80800080D9
:102AE00080800000203F210000203F2000008080E7
:102AF00080800000001F202020201F008080008098
:102B00008000000080FFA12020110E000000008046
:102B100080808000000E112020A0FF808080800037
:102B20008080800020203F21200001000000808064
:102B3000808080000033242424241900008080E059
:102B4000808000000000001F202000008080000026
:102B500000808000001F202020103F208080800007
:102B60000080808000010E30080601008080008017
:102B7000008080800F300C030C300F00008080003C
:102B8000808080000020312E0E3120008080800067
:102B90000080808080818E70180601000080808017
:102BA000808080000021302C2221300000000000B5
:102BB000807C020200000000003F40400000000056
:102BC000FF00000000000000FF0000000002027C87
:102BD000800000000040403F0000000000060101AE
:102BE0000202040400000000000000000C2C000899
:102BF00000000020E8040000A4220008DC2D0008EA
:102C0000E8040020900700000A2300081184A24A6B
:102C100004100A010203040607080901200F02023A
:102C2000FAFAAAAAFFFFAAAAFAFA0202100F42723F
:102C3000723A7A424B5B5262621377661016203CFE
:102C40001CFFFFB0B424243F3FE4E424242002020C
:102C500003FFFF300B01051D59C1FF7F010101502A
:102C60000CF8F8484C4F4B4A4848F8F84CFFFF44E2
:102C7000011929112C202424381009243010FFFFB9
:102C800010F0F01010081C1F0B0C0D4F6E341C0FB1
:102C900023607F3F180880C060F8FF07023546E0D8
:102CA000703C1C08200D7F7F0406033F7F4040409E
:102CB0007878100A03050911FF118905C312E01283
:102CC000F0496221073D4428FF11AA44700B83019B
:102CD00038448292927401831E7C44C7017D01991D
:102CE0000519C1419A01028139FB013C69419949A9
:102CF000FA0101A12A4001212A6D01212A600179EE
:102D00001501642ADB010915072ADA01212AD801F5
:102D1000212AC0010915072A800101352A06010967
:102D200018071CE66620076A86157A861C2A860123
:102D3000180A80808686068686C0C00C0E1C060691
:102D4000D030764D2907013113601C12FE130102A9
:102D50001009C41820029E63B20E1DFF8181FFF28C
:102D60004440300F12FF180923EAAABFAAEA033F22
:102D70000B012DBC808080080115240E0C082A014F
:102D8000013149041D81808081021901B9170611A2
:102D90000101090C0E0A14C0012178081E214040CF
:102DA00050215E08012A4DFFFFC1C10409232DD81F
:102DB0001580FCF3EFF3FC80FF80EEEEEEF5FBFFF9
:102DC0009CBEB6B6883AC3BB7E2D010203040480C4
:0C2DD000090607080902040608000000BC
:04000005080000ED02
:00000001FF
